:02000000382D99
:10000800FF00030E83018316A3000A08A2008A01D9
:1000180070088312A2007108A1003C08013EF0009C
:1000280000300318013E3D07F1007008BC0071085C
:10003800BD0081010B112208F0002108F100831690
:0E00480022088A00230E8300FF0E7F0E09009F
:100056007B15FB1F35280130F300F201F101F00199
:08006600FA0DF20CFF30080056
:0E006E00213083120313FD00FD0B3B28080018
:10007C000F3083120313FC004730FD00FD0B4428A6
:0A008C00FC0B4428000000000800EF
:0E009600F201F101F001F801F3010030080061
:0600A4000000000008004E
:0800AA00FA1FF21300300800F8
:1000B20083160313B51B602883120810622883126B
:1000C20008148316351B6828831288106A28831245
:1000D20088148316B51A70288312081172288312A5
:1000E20008158316351A7828831288117A28831204
:1000F20088156F187E2888167F28881208165220C5
:1001020008128316B5198828831208108A288312C8
:1001120008148316351990288312881092288312A6
:1001220088148316B5189828831208119A28831206
:10013200081583163518A02883128811A228831265
:1001420088156F18A6288816A72888120816522024
:0E01520008126F1CAE283E20AF283720080090
:10016000A0017208031DC5287108F2007008F10093
:10017000F001A0157208031DC5287108F200F101F5
:10018000A011201672080319D3282008F302031DBA
:10019000031CD7280310F21BDB28F00DF10DF20D24
:1001A000F30BCB28D7280130FC004B20DE2802308F
:0E01B000FC002B20DE280430FC005520080047
:0601BE00FB15FF300800F4
:1001C400FB14FB1FEC28FF30F300F200F100F000F9
:0801D400FA0DF20CFF300800E7
:1001DC00831203136F1083163408B50059206F1463
:0201EC00080009
:1001EE0083120313FB017308031D770803194E29AD
:1001FE0072087606FA007708F3077E30031C0B2987
:10020E00F302031851290E29F302031C5429720814
:10021E00F8007108FC007008FD00F817F6170310BF
:10022E00F201F101F0011830A0007D1C282974089C
:10023E00F00775080318750FF10776080318760F87
:10024E00F207F20CF10CF00CF80CFC0CFD0C031088
:10025E00A00B1C29F21B3829F80DF00DF10DF20D33
:10026E00F3037B1B701C4A29F81F4A29F00A031955
:10027E00F10A0319F20A031D4A29F20CF10CF00CD3
:10028E00F30A03195129FA1FF213003056290130CF
:10029E004B2056290230E220562904302B20000034
:0202AE00080046
:1002B0007B14FB1F6329F201FA1FFF30F200F100EB
:0A02C000F000FA0DF20CFF30080008
:1002CA00831203137408003A031D80297508003A43
:1002DA00031D80297608003A031D80297708003A11
:1002EA00031D8029FF30F000FF30F1007F30F2005B
:1002FA00FF30F3001B2A83120313770803190F2A0E
:10030A0073080319122A720876068039FA00F2175E
:10031A00F617A0017208F8007108FC007008FD00C9
:10032A007408FD027508031C750FFC027608031C8D
:10033A00760FF802F801FC01FD01031CAB2903103A
:10034A00F20CF10CF00CF80C0130A0007708F30263
:10035A00031CB5297E302007F3070318152ABA298A
:10036A007E302007F307031C182A1830FA07FD0D00
:10037A00FC0DF80DF00DF10DF20DA00D7408F00250
:10038A007508031C750FF1027608031C760FF2023A
:10039A00760DA004201CD3297D14DE297408F007E9
:1003AA0075080318750FF10776080318760AF2071D
:1003BA007D10FA031F307A05031DBC297B1B7D1CA7
:1003CA00052A0310F00DF10DF20DA00D7408F002CC
:1003DA007508031C750FF1027608031C760FF202EA
:1003EA00760D20040139FD070318FC0A0319F80ADF
:1003FA00031D052AF80CFC0CFD0CF30A0319152A37
:10040A00FA1FF8137808F2007C08F1007D08F00062
:10041A0000301A2A0130DF201A2A02304B201A2A09
:0E042A000430E2201A2A08302B2000000800BF
:10043800831203137008F8007108F000F101F2014B
:10044800F301FB01FC019630F300FA017008F1009A
:0C0458007808F000F801F201B020080064
:1004640083120313F801F9011030FC00710DF80D2B
:10047400F90D7408F8027508031C750FF9020318C6
:100484004A2A7408F80775080318750FF90703104A
:0A049400F00DF10DFC0B382A0800F2
:10049E0083120313FB01FC01FA01730803198E2A60
:1004AE00F2178E30F302F31B5F2A03195F2A912A8B
:1004BE00F309F30A08307302031C742AF300F10DDA
:1004CE007208F100F20108307302031C742AF10D58
:1004DE00F1017308031D03107C2A730803197C2A8B
:1004EE000310F20CF10CF30B772A7B1B711C862A7E
:1004FE00031C862AF10A0319F20AF21B9D2AFA1F1F
:10050E00A02AF209F109F10A0319F20AA02AF2014E
:10051E00F101A02A7B14FB1FA32AF201FA1FA32AC2
:10052E00FF30F200F100FA0DF20CA32A0130FC00AC
:10053E00A52A0030FC00A52AFF30FC00FC08031998
:0E054E00A92A58217108F0007208F100080077
:10055C00C02A803083160313B000D32AC030B000F9
:10056C00D32A9430B000D32AD430B000D32A8030B0
:10057C00B000D32A831603133008013A0319AF2AAB
:10058C003008023A0319B42A3008033A0319B72A7F
:10059C003008043A0319BA2ABD2A3103F000300896
:1005AC00F0077008B0007008B50059206F10831662
:1005BC00B30133083207840000080319EE2A33080C
:1005CC00320784000008B400EE208316B30ADF2A39
:0605DC0083126F140800F9
:1005E200831603133008F2007208F100F20A310890
:1005F200F000B10A700884000008F000710884005D
:10060200700880007108840000080319092BF52A7C
:060612003008F0000800B2
:0E061800831203136E088A006D08820008002A
:10062600831203130618542B69309F0080308316FB
:100636009F0083121F151F1D212B1E2B1E08F10064
:10064600F00183161E08F0070318F10A70088312DA
:10065600EB007108EC001C227008E7007108E80046
:100666007208E9007308EA000030F4000030F50073
:100676002030F6008530F700F7200030F400C03057
:10068600F5007F30F6008830F70065217008E70036
:100696007108E8007208E9007308EA00A301A401E2
:1006A6008F2B71309F00803083169F0083121F1599
:1006B6001E08F100F00183161E08F0070318F10A60
:1006C60070088312EB007108EC001C227008E7002A
:1006D6007108E8007208E9007308EA000030F400C7
:1006E6000030F5000030F6008430F700F7200030C7
:1006F600F400C030F5007F30F6008830F700652141
:100706007008E7007108E8007208E9007308EA005B
:100716000130A3000030A4006708F0006808F1006B
:0A0726006908F2006A08F3000800F9
:100730008312031373087706031DAB2B720876062A
:10074000031DAB2B71087506031DAB2B70087406D7
:0C0750000319031508000311080008003D
:10075C0013237008E7007108E8007208E9007308B9
:10076C00EA000030F4000030F5004830F600853027
:10077C00F700F7207008E7007108E8007208E9003C
:10078C007308EA004F2270088316AE007108AF00A0
:10079C002E088312DA0083162F088312DB00E83050
:1007AC00F4000330F50083162E08F0002F08F1003A
:1007BC00322270088316AC007108AD002C0883122D
:1007CC00D80083162D088312D9006430F400003051
:1007DC00F50083162E08F0002F08F10032220A30A3
:1007EC00F4000030F50032227808F0007908F100AE
:1007FC0070088316AA007108AB002A088312DC006B
:10080C0083162B088312DD000A30F4000030F5004B
:10081C0083162E08F0002F08F10032220A30F40063
:10082C000030F50032227808F0007908F1007008E9
:10083C008316A8007108A90028088312E500831606
:10084C0029088312E6000A30F4000030F500831604
:10085C002E08F0002F08F10032227808F0007908F9
:10086C00F1007008E3007108E400303083162C07A7
:10087C008312DE00303083162A078312DF002E30FD
:10088C00E0003030831628078312E1003030700707
:10089C00E20001308316B0000530B1004630B200E2
:1008AC00AE22230824040319642C02308316B000F2
:1008BC000130B1004230B200AE226C2C02308316F3
:1008CC00B0000130B1003E30B200AE2202308316CF
:1008DC00B0000430B1005E30B200AE22503083164E
:1008EC00B0005730B100F122B0308312D00002308A
:1008FC008316B0000930B1005030B200AE22023085
:10090C008316B0000A30B1005230B200AE22503023
:10091C008316B0005130B100F12230302007831221
:10092C00D00002308316B0000E30B1002630B20079
:10093C00AE2202308316B0001030B1005030B2003D
:10094C00AE2250308316B0002530B100F1220800E1
:10095C00831603178C1CB42C0000AE2C0313280830
:10096C00831203178D0083160313290883120317B0
:10097C008C0083168C130C150B08F0008B13553060
:10098C008D00AA308D008C14F01BCE2C8B13CF2C29
:06099C008B170C1108008E
:1009A2008316031308128812881108118810081080
:1009B20083120812881208108810081188113E202C
:1009C2003E203E20081588150816522008123E20A7
:1009D2000816522008123E200816522008123E2005
:1009E20088110816522008123E20081652200812BA
:1009F200081108140816522008123E200810881503
:100A020008165220081288110816522008123E2099
:100A120008165220081288150816522008123E2085
:100A2200881108165220081208148814081588150F
:0C0A32000816522008123E206F14080025
:100A3E000C238A110A128000840AED0A0319EE0AA9
:080A4E00F003031D1F2D080039
:100A5600831603132808831203178D0083168C133D
:0A0A66000C1483120C08F0000800C5
:100A70009A26FF30831603138600870183128701AD
:100A8000D1240C308316B50059208714A630FD0000
:100A9000FD0B482D000087103430FC00F130FD00C4
:100AA000FD0B502DFC0B502D000000000715A6304B
:100AB000FD00FD0B592D000007113430FC00F13012
:100AC000FD00FD0B612DFC0B612D000000000230CC
:100AD0008316A8002B257008003A03197B2D0230DD
:100AE00083160313A800A901AE2403300313A80042
:100AF0000930A900AE2483168112811101158114D9
:100B000001148B170B118B1603300313A8002B2530
:100B1000700883160313A000A101AE2313237008ED
:100B20008316A4007108A5007208A6007308A70028
:100B300013237008F4007108F5007208F6007308BA
:100B4000F70083162408F0002508F1002608F200BB
:100B50002708F3009823013003190030F0007008D3
:100B60000319B32DAE238312861C012E8316210890
:100B7000003C031DBD2D2008003C0318012E46300B
:100B8000B0002930B100F122AE23831287140F3058
:100B9000FC004730FD00FD0BCB2DFC0BCB2D0000E6
:100BA000000087103430FC00F130FD00FD0BD62D25
:100BB000FC0BD62D000000000619DF2DDC2D061DD4
:100BC000012E01308316A002031CA1030330A800EC
:100BD0002008A900AE248312031387170713871474
:100BE000A630FD00FD0BF22D000087103430FC0014
:100BF000F130FD00FD0BFA2DFC0BFA2D000000007A
:100C0000AE238312861D5E2E061F5E2E07150F3043
:100C1000FC004730FD00FD0B0B2EFC0B0B2E0000E3
:100C2000000007113430FC00F130FD00FD0B162EE2
:100C3000FC0B162E00000000BC01BD018101061A4C
:100C40002B2E3D08003C031D272E3C08983C031822
:100C50002A2E07161F2E0712061E5E2E8316A00AC6
:100C60000319A10A2108003C031D382E2008093C65
:100C700003183E2E0930A0000030A1000330A80068
:100C80002008A900AE2446300313B0003330B10071
:100C9000F122AE238312871307170715A630FD0034
:100CA000FD0B502E000007113430FC00F130FD0028
:100CB000FD0B582EFC0B582E000000008E2D5F2ED1
:100D340023308400353083120313F0006530ED0056
:080D44000630EE001F25080037
:040CCA0000340034BE
:020CCE000034F0
:060CD00050343A340034F8
:100CD6004234693465346E34763465346E34753432
:040CE600653400343D
:100CEA00413475347234653476346F34693472340D
:020CFA000034C4
:040CFC00003400348C
:080D000054343D34203400346A
:080D080054343D342D34003455
:100D10004234693465346E34763465346E347534F7
:040D20006534003402
:020D2400003499
:020D2600003497
:0A0D2800433420347C3420340034BE
:020D320000348B
:02400E007A3BFB
:00000001FF
